:400000000010002011000000650300006503000008B500F057FA00F0A7F90000F8B572B680220021D200474801F0F7F880224648D200002101F0F1F80022141C4349FF2549
:4000400057580C313E1C081C6300AE433D4001336419CB186100013141188B4206D0581E00781D78801905700233F6E704320C2AE4D1C022364B92041A60EE22354B120247
:400080001A609922344B80211A609923334A1B041360334A89051360324A3C2411600221314A32481360324A324B1A60324A13780B4313700378A343283C23430370162031
:4000C00013782E4C0343137080222D4B40181A6080222C4BD2031A6040222B4B1A60C0222A4B52031A60D822294B12011A603122284B1960284B1A608022284BD2021960DD
:4001000023681343236000F043FF2268244B254913402360244A254B1A601022244B1A60244B92181A608022234B12061A600023224A236011602249224A1160224A13609A
:40014000F8BDC04600300F4000400F4038120000040001400C0001401000014000500F4010500F4018500F4030500F4001700F40100001002001054000700F4000010B4073
:400180000000044008000440000104400801044008030440000404400804044018040440FFFFFBFF100000800600008004010B40080202402002024008010B400000024032
:4001C000AF040080400002400C020B4010B5064C2378002B07D1054B002B02D0044800E000BF0123237010BDF0000020000000003412000008B5084B002B03D0074808497C
:4002000000E000BF07480368002B00D108BD064B002BFBD09847F9E70000000034120000F4000020D00000200000000010B562B600F04EFD00280ED16524012000F088FE15
:4002400000F046FD002806D1013CE4B2002CF4D14022034B1A6000F02DFD00F031FBFEE7C000002008B500F06DFB00F0B7FB00F023FC08BD08B500F073FB08BD70B50D1CAA
:40028000161C0024034BC9B21C8000F009FC3580201C70BD0C010020F0B50A26171C00245E4387B0039005912D4DB4421ADA00F087FB80B228802B88002B0DD002202C88D5
:4002C00000F046FE00F07CFB80B228802B88A4B2A342F3D8002306E00120013400F038FEA4B2E1E70523002401933C802B88002B32D02E883B88B6B2F318059A9BB23B801E
:40030000934220D2A3199BB20293029B9C4209D0631C9BB20493039B1C1900F037FB2070049CF2E772B62B889E1BB6B22E8062B6039B029A9B18013B1B78172B0AD00520E4
:4003400000F006FE06E09E1B3E8000F047FB0523019301E0029CC9E7019807B0F0BDC0460C010020FEE7000070B51049104B01394A1C15D000221E685C689D68A018AA4287
:4003800003D0B058A0500432F8E7021CDC68151AA54202D0002520C2F9E710330139E7E700F00CFFFFF742FFFEE7C04601000000B012000008B500239A000D49032B01D82A
:4003C0000C4989580C4801338150302BF4D1FFF725FE0022094B1A60094B1A68002A00D11A6080220121D20513680B43136008BD650300000000000000000020C8000020EE
:40040000C00000200047002310B5002A05D0013A4418A45C1B19DBB2F7E7181C10BD0000013800B50B282FD8C901494200F0B2FE06080A0C0E10141216191B20154B13E035
:40044000154B16E0154B0AE0154B12E0154B0BE0154B09E0154B02E0154B00E0154BC91813E0154B05E0154BC9180878C0B210E0134BC9180A7848788B7800021B041843D8
:40048000CB7810431B0603E000210B7848780002184300BDC07F0000C17F0000C57F0000C97F0000D07F0000D17F0000D67F0000D27F0000D47F0000D87F0000DC7F0000CF
:4004C000E07F00000C4B10B51A68102313400B4A00D113601368802B0DD100240220211C1460FFF79DFFA04205D0211C0220FFF797FFFFF787FF10BD00030B40C00000203A
:40050000F8B5061C0320311CFFF78AFF041C311C0420FFF785FF0134E401271800240320311CFFF77DFF251C0130C001B84209D203785A1ED2B2FD2A00D801251C19E4B224
:400540000130F3E70120311CFFF76AFF6442E4B20623844203D16A4255416D422B40181CF8BD0000F0B5BE4CA544FFF77BFE62B60024271C962108AD281C490002AAFF2312
:40058000FFF78AFE0028F5D102AB1A88062A00D887E029780423012950D1EE78A97836020E43F11D91427ED89622520091427AD8AA199446527961460092624692790979B2
:4005C000172A3BD1F3189BB2002B0BD09EAA9446A44A9C44944462461278013B9446604480B2F0E7009B40421A0280B20A430823824223D159E0342B00D0C2E0012F50D19D
:40060000032E4ED153A80021802200F006FE80241F2153AB181902ABA419F21EC918A4B200F0F2FD832C00D015E1AC796879240204430127FF2C00D824E10A23002102AA03
:40064000012002326B700B0AEB70944600232870081D1180A97080B2002809D09EAE814A3618B618367801389B199BB280B2F3E79EAA50187C4A5B4286187C4A9BB23370B5
:4006800086181B0A33707A4B0731C018172389B203706246281C7F33FFF7F0FD6AE7012F4BD00423CAE70323C8E72B7900936B78181C31380A2833D96E4A12680092002A6A
:4006C00029D0012F2AD102AAD68005AE1371002109AB0C22301C049300F09FFD09ABB360311C009B03A898472623B188FF33994204D9B3681A1C09AB9A4207D0B268002A8A
:4007000001D1002904D13368DBB298E70E2395E70E23111C93E70523009990E705238DE700F042FDBDFF1400CAFF69FF3400CAFF38004D0069FF5D008C00002EB1D1301CEA
:40074000FFF7DEFE434243412B7174E0012FA8D1012EA6D1009B002BA3D1474B1B681B68DA0BD2B2DB09DBB2002A01D080235B002B711B0A6B71FF23AB7100230421EB713B
:400780005DE7012F8DD1022E8BD941E7012F88D10024EFE6012F84D1A31900939623009A5B009A4200DD7EE753AB181909A9321C00F02AFD6B461C880023191C3FE7002E42
:4007C00000D06EE705AB191C2C4A012711CA11C109AA03CB03C2341C331C08212FE7012F00D05EE7032E00D05BE7AB796A791B021A430192FF2A00D91FE7009B0020190206
:40080000019B80225918C901FFF7FDFD009B061C002B0ED1019BFF2B0BD100990520FFF7FFFD0099361A0620FFF7FAFDF6B2361AF6B276422E710023012100E70020FFF701
:400840005FFE002802D180220D4B1A60FFF712FD00F072FB25E7002401270323211CEEE684FDFFFFA7FDFFFFACFDFFFFADFDFFFFAEFDFFFF10010020D40000205412000017
:40088000C00000200D4B1B681A68D3099BB2520601D001339BB2009A1002201880B2984203D2002401270A23D8E753A900F02CFA0028F6D1041C0127031CCFE7D400002019
:4008C00070B50020FFF71CFE144E431E9841336806241D6840422A1C0440C03A0020C021FFF791FD73681B78181AC0B2984201D1002D02D1002000F01DFB094B19681A1C41
:40090000402901D0002C03D000231360FFF72AFE80221A6000F010FB70BDC046D4000020C00000208021064A08B5136809060B4313600A2000F0E0FA00F058F908BDC046B3
:400940000000064010B5054C2378002B03D100F0DFF801232370FFF7E5FF10BD1401002008B50A2000F0D2FA00F052F9054A0A2013685B005B0813600022034B1A6000F04A
:40098000CFFA08BD00000640880F0640094B0A491A680B6800209A420AD00B685A1C403B581E83415B421A40044B985C0A60C0B27047C046B80100203001002074010020E4
:4009C000044B1868044B1A681B68904200D24130C01A7047B80100203001002008B50A2000F094FA0B4B80211A680B4B49021A6000220A4B0A201A70094B1A680A431A6043
:400A00001968084A0A401A60074A084B1A6000F073FA08BD30010020B8010020B501002004030640FFFFFEFFED0F0000C00F064030B5144A144C11682368994208D1134BCD
:400A400019680F230B40082B02D0114B186017E01368591C3F3B5D1EAB415B42194023689942FCD002240B4BC0B21C600A4B58540A4B11601A68224202D11A6822431A6064
:400A800030BDC0462C010020280100200802064040020640800F064034010020880F064038B5041C4518AC4204D02078FFF7C0FF0134F8E738BD000008B50A2000F026FA55
:400AC00002210C4B0A201A680B4B1A600B4A13688B43802113600A4B49021A680A431A601968084A0A401A60074A084B1A6000F003FA08BD280100202C010020880F06408B
:400B000004020640FFFFFEFFF3070000800F064010B51E4A00241E4B07201A6001221D4B1D491C601D4B1A601D4B0B601D4908601D4903300C601D490A601D4A13601D4B3D
:400B40001C6000F0E3F90A20032100F0BDF91A490A2000F0B1F90422184B1C60184B1C60184B1C60184B1C60184B1A60184B1C601A68184B1A80184B1C60184B1C60184B14
:400B80001C70184B1C60184B1C6010BD0B00000200000640400006400003064048000640070000800403064010030640440006400002064004020640B5100000880E064082
:400BC000C80E0640480F0640080F0640C80F0640880F06401C010020B801002030010020B50100202C01002028010020F021054A13688B4360390B431360034B1A88034BD1
:400C00001A607047100001401C010020880F0640F021064A13688B431360054B1A68E423DB001340034A13807047C04610000140880F06401C010020842280210D4BD20477
:400C40001A601A6849020A431A600B490B4A0A6019681960C3210A4B890019600021094B1960094B1C311960084B1A60084A094B1A607047000105400801054010270000A7
:400C800024010540380105402801054014010540881300000C01054008B500F02BF80121034A13680B43136000F028F808BDC0460000054010B5054C2378002B03D1FFF756
:400CC000BBFF01232370FFF7E7FF10BD20010020024B18680006C00F7047C046040004400230800804D0C0460138FDD1C046C046C0467047EFF3108072B6704780F3108832
:400D00007047C046C046C046F0B50024ADB008940994FF2800D9AEE0A14200D1ABE0039080220CA800F070FA0222211C01940AAB9000C058002802D0091804430192013200
:400D4000222AF4D1002903D1002C00D096E000E0002402947F224E494E4D0A914E4F5A604E4A2B603A60C0462B6805911B0F06920F2B02D12B68DBB205E02A680023120FFE
:400D80000A2A00D02B680893089E002E00D07CE0FFF7B0FF424A434B116809961960089B04900792002B19D13F4A03990A920A9A09040A430AA90A9229603C49354A396098
:400DC000C0462968090F0F2902D11368DBB204E01168090F0A2900D013680893089E002E3DD1002C3BD00CA8311C802200F015FA019B029A0AAC9B001A51059B069A0A9317
:400E00007F2363602C60234B3A60C0462A68120F0F2A02D11E68F6B204E01A68120F0A2A00D01E680896089B002B18D1204A03990A920A9A08041F4910430A90154A2C60CE
:400E40003960C0462968090F0F2902D11368DBB204E01168090F0A2900D013680893099B002B04D10F4A079912680A6009930498FFF744FF09E00423089306E0019A012446
:400E8000920098589950029064E708982DB0F0BDB6D7000008000040040000400400008008010B4024010020B6D8000005000080B6D9000006000080024B8000C31818683A
:400EC000196070474000002038B5041C0D1CFFF711FFA308074A9B009B180322144094400634A240A5401968914329431960FFF705FF38BD00E400E01F2318401E3B8340EB
:400F0000181C014B1860704700E100E01F2318401E3B8340181C014B1860704780E100E01F2318401E3B8340181C014B1860704780E200E001BE7047034A044913689BB21C
:400F40000B4313607047C0460CED00E00400FA0510B5041C8022074B1202944205D91868FFF7BEFE044BE418F4E758686043FFF7B7FE10BDDC0000200080FFFF08B5034BBE
:400F80001B7A5843FFF7ACFE08BDC046DC000020F0B5051C87B0FFF7ADFEEB1E049003932D2B5BD8304B1B789D4204D82F4B1C782F4BE4B21EE02F4B1B789D4204D82E4B18
:400FC0001C782E4BE4B215E02D4B1B789D4204D82C4B1C782C4BE4B20CE02C4B1B789D4204D82B4B1C782B4BE4B203E02A4B1C782A4BE4B21B78039ADBB20193284B294F81
:401000009A5C059302922F2A04D92A2D02D919263E6008E03F233E681E40029BB34205D2204B029A1A600520FFF75AFE1B4B1E4AED182B780520DBB213601C4B019A1C6085
:401040001B4B1A60FFF79AFF029BB34206D9059B039A05209B5C3B60FFF742FE0498FFF74DFE07B0F0BDC046C0F1FF0FC1F1FF0FC2F1FF0FC3F1FF0FC4F1FF0FC5F1FF0F96
:40108000C6F1FF0FC7F1FF0FC8F1FF0FC9F1FF0FCAF1FF0FCBF1FF0FCCF1FF0FCDF1FF0F5C1200002CFF0B4028FF0B401CFF0B4020FF0B4008B5264B1B68002B00D098473B
:4010C000244B1B685B071CD523490B685A1C403B581E83415B421A40204B1868204B1B68824203D120221F4B1A7003E01E48DBB283540A601D4B1B681B07E5D104221C4B9C
:401100001A601C4B1B689B0721D51B4B1B491A680B689A4213D00B685A1C3F3B581E83415B421A40164B17489B5CDBB20360164B0A601A680F231340082BE6D104E0022137
:40114000124A13688B4313600222114B1A6008BD18010020CC0F0640B80100203001002040030640B50100207401002008030640C00F06408C0F06402C0100202801002043
:40118000340100204002064008020640880F0640800F064002B4714649084900095C49008E4402BC7047C04603B47146490840004900095E49008E4403BC70470E4B70B590
:4011C00000251E1C0D4CE41AA410A54204D0AB00F35898470135F8E700F058F8084B00251E1C084CE41AA410A54204D0AB00F35898470135F8E770BD9812000098120000C2
:4012000098120000A0120000002310B5934203D0CC5CC4540133F9E710BD031C8218934202D019700133FAE77047000000130000FF0000000000000001330F4003410F40C4
:4012400004430F40E61062048E04D84018808C40C608E6089311C80411320101030405060708090A0B0C0E0F101112131415161718191B1C1D1E1F202122232526272829EE
:401280002A2B2E2F3031323334350000F8B5C046F8BC08BC9E467047F5010000B5030000F8B5C046F8BC08BC9E467047CD010000C0120000D000002020000000D000000093
:4012C000000000002C120000301200000000E02EC05D00001800000000366E0100000000000000000000000000000000000000000000000000000000000000000000000086
:401300000010002011130000752800007528000008B5024B83F3088801F0BCFE00100020000000000000000000000000000000000000000000000000000000000000000034
:40134000000000000000000000000000000000000000000000000000000000000000000000000000000000000000000000000000000000000000000000000000000000006D
:40138000000000000000000000000000000000000000000000000000000000000000000000000000000000000000000000000000000000000000000000000000000000002D
:4013C00000000000000000000000000000000000000000000000000000000000000000000000000000000000000000000000000000000000000000000000000000000000ED
:4014000010B5064C2378002B07D1054B002B02D0044800E000BF0123237010BD4801002000000000F074000008B5084B002B03D00748084900E000BF07480368002B00D16B
:4014400008BD064B002BFBD09847F9E700000000F07400004C010020D0000020000000000322F0B50124F24BF24D1A70F24B30321A70F24B0A3A1A70F14B113A1A708DB069
:4014800000202C7001F0A2FA0021EE4BEE4A29701A6005225A6002329A601932EB48DA60EB4A02931060EB4809920160197C002910D11C74E84BE94A1C60E94B1A6403F058
:4014C000C1FFC023E74A11680B43136003F0BEFFE54B1C600122E54BE54F1A60029BE54D5C7CE54E002C3FD1E44B01213B60E44B1C60E44B1A60E44BE44A136007222A60A8
:40150000E34A1460E34A1160E34A1360E34BD24A1C608023DB00136003F094FFC023E04A1B0411680B43136003F090FFDD4ADE4B1A600422DD4B1C60DD4B1C60DD4B1C60CB
:40154000DD4B1C60DD4B1A6034603368029A5382DB4B1C60DB4B1C60DB4B1C70DB4B1C60DB4B1C600123537480228020F0213B68120613433B60BC4BC000D64A1860136887
:40158000D54F8B4360390B431360029BD3495B8A3360B14BD24E1860CA4B1A68C84B1A600022C94B1A7080222B68520213432B602B68CC4A0B402B60CB4BCC4D1A60AA4BAF
:4015C0001860CB48CB4B04682340C024240123430360F720C84B1C682040186002980A91047D0B920893002C41D10122C34B3B60C34B1C60C34B1A60C34AC44B1A60072359
:4016000001222B60C24B1C60C24B1A609E4AC24B1A608022C14B12011C608F4B1A6003F011FFC0239E4A1B0611680B43136003F00DFFBB4ABB4B1A600422BB4B1C60BB4B91
:401640001C60BB4B1C60BB4B1C60BB4B1A6034603368029AD382B94B1C60B94B1C60B94B1C70B94B1C60B94B1C600123137580223B68120613438022F0203B607A4B120136
:40168000B3491A600B6800248343603803430B60029BDB8A3360704B1A60A94B1968A74B19608021A74B49021C702B680B432B600A992B680B402B600B99A64B19606A4BBF
:4016C0001A6062B6A44AA54B11688F380B40C02149030B43136001F0FDF8A14BA14A19685C4BC90600D40DE209999F480A6004221A6001F083FAFA20400001F0C7F8201C43
:4017000001F07CFA0821089B201C1A6801258A43D3B2089A0B43136001F070FA201C01F0D9F89248022101F07DFE91489149221C322301F08FFEA04200D1EFE1291C8E48B9
:4017400001F070FE012001F0C5F800228B4E8C4F131C391C301C01F07DFEC820400001F095F8FA23874C8849221C9B00874801F071FE0290002001F0ADF809963E1C052D47
:4017800000D1CBE1029B0135ADB2002BD6D00125291C7F4801F046FEC820400001F076F87C487D49221C322301F054FE0A2D00D1B4E10135ADB20028EAD00125291C77481D
:4017C00001F030FEC820400001F060F800220998311C131C01F03EFE0A2D00D19EE10135ADB20028EAD00125A9B26D4801F01AFEC820400001F04AF801356A486A49221C7C
:401800003223EDB201F026FE0028EDD00125A9B25F4801F007FEC820400001F037F8013562486349221C3223EDB201F013FEC1E092000F4073000F4042000F4022000F404E
:4018400032000F4064010020F8740000FFFFFF00500800204C08002080E100E00D2C00000000002000E400E000E100E0440800200000064004030640880F06400B00000205
:40188000400006404800064007000080000306401003064044000640000206400402064008E400E0B927000068000020880E0640C80E0640480F0640080F0640C80F06408A
:4018C0002005002024050020280500206C050020700500201000014000000740FFFFFEFF880F0740ED0F0000C00F06400403074008020440FFF1FFFF00020440080000028B
:401900004000074048000740070200800003074010030740440007400002074004020740F92600006C000020880E0740C80E0740480F0740080F0740C80F0740EC02002076
:40194000F0020020F4020020F8040020FC0400200C000140C00F074008010440FFFFE3FF040104400F0F0F0099FF0000FFCC0000D8760000E3760000B3006600F176000073
:40198000FA7600003377000012770000057700009900990036770000497700001919B30000409900557700005E7700006C77000078770000002800D129E70125A9B29D48C9
:4019C00001F030FDC820400000F060FF01359A489A49221C3223EDB201F03CFD0028EDD00125FF20A9B2000201F01CFDC820400000F04CFF013592489249221C3223EDB2EA
:401A000001F028FD0028ECD08F48512101F00AFD8E48A32101F006FDC82000F037FF002001F0ECF800F0CAFF002801D100F046FF002000F04FFF00F059FF0028FBD000F069
:401A400063FFC0B22B28EDD100F050FF0028FBD000F05AFFC0B24928E4D100F047FF0028FBD000F051FFC0B25028DBD100F03EFF0028FBD000F048FFC0B24428D2D100F0A7
:401A800035FF0028FBD000F03FFFC0B22C2845D12B3800F01FFF0A2400F028FF0028FBD000F032FF013CC0B2002C02D1684C694D0FE03A28F0D1F9E700F026FF207000F08C
:401AC00023FF607000F020FF631E04341870AC4204D000F00BFF0228FBD9EDE700F006FF0028FBD000F010FF00F07CFF0028FBD0012000F085FF00F061FF002892D100F071
:401B0000DDFE8FE70999FF200A60042200021A6001F074F8FA20400000F0B8FEFF2001F06DF8FA20400000F0B1FEFF20000401F065F8FA20400000F0A9FE002001F05EF8F3
:401B4000089B1A68F7231340089A136003F084FC03F0CCFC03F0F8FC192101F0A5FE3E4D6131EB69A9612C1C9942F3D0C9B22039081E592801D900F0A2FD01F015FD8C0502
:401B8000A005A005A005A005A005A005A005A005A005A005A005A005A005A005A005900599058E059605940596059905A005A0059E05A005A005A005A005A005A005A005D7
:401BC000A005A005A005A005A005A005A005A005A005A005A005A005A005A005A005A005A005A005A005A005A005A005A005A005A005A005A005A005A005A005A005A00545
:401C00006F00B000B300B900D2009605000147019F01AB01AF01E20143025002A005A2022103A60303043F0472048B04B804F8043A05C04600CC99008F7700009877000011
:401C4000A9770000B277000099FF0000B2FF0000B5050020450800206401002000250020A321062201F08CFB02260024E0B201F06BFB0799D84B020419400B1C13430793EF
:401C8000FF23079A9A43131C03430793079AD34B000213400343191C60190793013400F0EBFD012000F0F2FD092CDFD100F09AFE0028FBD0012000F0A3FE0F2000F0E6FDB2
:401CC000012E01D00126D0E700F078FE002801D100F0F4FD0135B62DC1D100F0F0FC0A20002101E00120011C00F0B8FE00F0E7FC03F02AFC182101F0D7FDB94C8900085955
:401D000000F07CFF052503F01FFC182101F0CCFD89006058013D00F009FF002DF3D100F0CEFC03F011FC4A2101F0BEFDA525AC4B8900CE580020A321052201F021FB206AC2
:401D4000A42101F0B1FD081C311C00F095FD00F049FE0028FBD0012000F052FE142000F095FD00F02BFE002801D100F0A7FD236A013D01332362002DDCD100F0A0FC03F047
:401D8000E3FB4A2101F090FD0024954B8900CD580020A3210F2201F0F3FA201C291C00F06BFD00F01FFE0028FBD0012000F028FE322000F06BFD00F001FE002804D00134DD
:401DC000A42CE5D1013C14E000F078FDF7E700F009FE0028FBD0012000F012FE322000F055FD00F0EBFD00280DD0013C01D200F066FC0020A3210F2201F0C2FA201C291CC8
:401E000000F03AFDE3E700F059FDEEE703F09CFBFF2101F049FDAE1DF17703F095FBFF2101F042FD6F4B0A24D97703F08DFBFF2101F03AFDEB1DD977029303F085FB18211B
:401E400001F032FD664B8900C85801F067F901230890019300946A6A089BA421002001F021FAA86203F070FB211C01F01DFD0527F37F791AC918F17703F066FB211C01F09F
:401E800013FD584B791ADB7FC918564BD97703F05BFB211C01F008FD029B7F1AD97FA4207F18DF7701235B4201930094011CAA6A089B01F0F7F9A86200F001FC03F044FB2E
:401EC000182101F0F1FC464B8900C85800F02EFE00F0F5FBFF21282009029CE0FF260124360206231C4204D1201C311C00F0C4FC0BE000253C4AAB00D158281C490801355A
:401F000000F0BAFCA42DF5D1EEE700F06BFD0028FBD0012000F074FD322000F0B7FC201C0A2101F0C1FC052901D1304BF61800F045FD002801D100F0C1FC0134A42CD0D1B0
:401F4000BDE30A272A4B1A68632A01DD00221A60284A1968914231D100221A60264BDA621A632BE0E36A1E4A9B009958301C00F083FCE36A0133172B00D90023E3621E4B90
:401F800001365E631C4C666BA32EEBDD0135172D1ED8256300F026FD0028FBD0012000F02FFD322000F072FC00F008FD002801D100F084FC0E4A1368013313600C4B1B68B9
:401FC000632B1BDC00220C4B1D6B5A63DD62D9E700232363DEE7C046FFFF00FFFF00FFFF5079000069010020B405002001010100D4000020AA0A000064010020013F002F66
:40200000A0D15CE303F0A0FA4A2101F04DFC0520D14B8900C958D14A01F0CEF94FE303F093FA182101F040FCCB4C89000F5903F08BFA182101F038FC89000B5902939F42A7
:40204000EDD0052300260893002502992A1C381C00F0C2FF391C09902A1C029800F0BCFF01240A90601E002E05D0099900F004FC201C0A9904E00A9900F0FEFB201C099937
:40208000023400F0F9FBA52CECD101239B1BDEB200F0A8FC0028FBD0012000F0B1FC782000F0F4FB00F08AFC002801D100F006FC0535692DC9D1089B013B0893002BC3D14D
:4020C000FDE2C82302930025A54B0520EF5CA54E01F0D6F83F1AFB43DB171F40A04B5F550135A42DF0D1351C3736D9352B7868780321C018C01801F0F1FA013DE870B5426F
:40210000F4D1994A994B11884B4399495B189BB21380DBB2772B10D8072001F0B1F8914D061C38352F5C5F2001F0AAF86038C0B23F18FF2F00DDFF27AF550025231CC022F9
:402140003833E95C131C4B431A124B1E99418B183F21DBB219405AB28900002A03DB4022134001D002E0FF231A1C01E000238022FF20069E1B028643301C10437D4A09047B
:4021800002401A437C4B281C13400B43191C0135069300F071FBA42DD0D100F023FC0028FBD0012000F02CFC102000F06FFB102000F06CFB029B013B0293002B83D17EE269
:4021C000C823029300256D4C0520271C5C37EE5D01F056F8361AF343DB171E407E550135A42DF0D1251C261CFB355A362B7868780321C018C01801F071FA013DE870B54208
:40220000F4D1594A594B11884B4359495B189BB21380DBB2772B10D80720261C01F030F85C36375C051C5F2001F02AF86038C0B23F18FF2F00DDFF2777550025231C5C33B4
:40224000E95CC0234B434A1E91411B12CA183F23D2B2134051B29B00002905DB40210A4006D1191C131C05E01A1CFF23191C01E00022FF21FF20059E09028643301C1843C7
:402280003C4B120403400B43059305993A4B281C0B401343191C0135059300F0EDFAA42DCCD100F09FFB0028FBD0012000F0A8FB102000F0EBFA102000F0E8FA029B013BF7
:4022C0000293002B00D07DE7F9E103F03DF9492101F0EAFA204C89000D5903F035F9492101F0E2FA89000E590024291C201C00F0C3FA03F029F90A2101F0D6FA052901D1B2
:402300001F4BED18A320311C001B00F0B5FA03F01BF90A2101F0C8FA052901D1184BED1803F012F90A2101F0BFFA052901D1144BF6180020A321052201F022F800F052FB84
:402340000028FBD0012000F05BFB0134322000F09DFAD62CC9D1B2E150790000FFFFFF009C01002064010020E00000200508000019360000FF00FFFFFFFF00FFE401002063
:4023800001010100A3268021CF4C49012568A81E00F072FA802123680902581E00F06CFA281CCA4900F068FA8021681C090200F063FA8021A81C490100F05EFA00F012FB7F
:4023C0000028FBD0012000F01BFB322000F05EFA002000F0FBFABE4922684B689A1801D5012204E0A22A01DC226003E0A1225B4222604B60013E002EC5D160E103F0A4F8E3
:40240000482101F051FAB34D89004C5903F09CF8482101F049FA201C89004D5900F07EFE041CC6B2281C00F079FE0125071CF9B22A1C301C00F052FEFF239C430443201C41
:4024400000F0C6FE00F0DAFB142000F01FFA00F0B5FA002801D100F031FA0135062DE6D12DE103F071F8482101F01EFA994C89000D5903F069F8482101F016FA14228B00A3
:402480000092133A0192A3212A1C1B59002000F009FF14E1C82503F057F8041C03F054F8052101F001FA201C4E1DA32101F0FCF90F1C0C1C03F048F80A2101F0F5F9C8B224
:4024C00000F042FF0102014300040143201C013400F0D2F9E31BB342ECDB012000F090FA013D052000F0D2F9002DD4D1E7E0052503F02AF8182101F0D7F9764C89000B59FC
:40250000029303F021F8182101F0CEF989000E59029BB342ECD00024201C029900F0ACF90A21A7B2781F0A1C80B200F029FFA320311C001B00F0A0F9A8200A21C01B80B2FC
:402540000A1C00F01DFF00F04DFA0028FBD0012000F056FA192000F099F9A31CB62C02D001349C42D8DD013D002DC1D1A7E0FE270924BF051F260025281C02F047FD03F037
:40258000CBF802900391381C02F040FD021C0B1C0298039902F0A0FA02F08CFD01F090F9C3B2180218431B04184300F027FB192000F06CF9281C484901F09AF9013E051CF6
:4025C000002ED9D1381C454901F092F9013C071C002CCFD1221CA421002000F0D1FE012000F00EFA0134192000F050F9642CF1D165E00027A324A42300260293301C391C2F
:4026000001F076F9364901F073F9364901F0ECFA02F0FCFC03F080F80022334B01F034FF324B002202F058FA02F044FD01F048F9C5B2301C01F0C0FE290229432D04294301
:4026400000F01AF9FE21301C890501F051F9029B061C013B0293002BD0D1012000F0D0F9192000F013F9FE21381C890501F040F9013C071C002CBED1221CA421002000F05F
:402680007FFE012000F0BCF90134192000F0FEF8642CF1D113E000200CE015480AE0012000F0AEF90BE0FF2004E0FF20000401E0FF20000200F0A2FA01E000F0FFF80D4B74
:4026C0009A69DA61FFF746FAE402002030FF0000D400002050790000CDCCCC3D0000704100003442000020410000F03F00006040B300660064010020234B1B685B071CD599
:40270000224A23481368591C1B18581E83415B42194050681F4B1B68814202D12023137204E0101CDBB20930435411601A4B1B681B07E5D10422194B1A60194B1B689B0741
:4027400020D5184AD1681369994213D01369591C1F3B581E83415B42194053181B7D1248DBB20360114B11611A680F231340082BE7D104E002210E4A13688B4313600222C8
:402780000C4B1A607047C046CC0F0740EC02002000FEFFFF4003074008030740C00F07408C0F0740EC0400204002074008020740880F0740800F0740234B1B685B071CD5A9
:4027C000224A536B591C403B581E83415B421940906B1F4B1B68814203D120233C32137004E0101CDBB23D3043545163194B1B681B07E5D10422184B1A60184B1B689B073D
:4028000020D5174A11685368994213D05368591C3F3B581E83415B42194053181B7A1148DBB20360104B51601A680F231340082BE7D104E002210D4A13688B4313600222F1
:402840000B4B1A607047C046CC0F0640EC0400204003064008030640C00F06408C0F06406C0500204002064008020640880F0640800F0640FEE70000A32803D8024B800057
:40288000181881647047C0466C05002010B5041C80231B029C4205D9054802F0C9FD054BE418F5E70448604302F0C2FD10BDC046000008520080FFFF10A40000034A04498E
:4028C00013689BB20B4313607047C0460CED00E00400FA054023044980010A689A43D2B2034013430B60704700010440044A1368516850688B4201D2024A9B18181A7047F0
:40290000EC0200200102000008B5FFF7EFFF031C0020834211D00D4A1168536899420CD053680B48591C1B18581E83415B421940131C0933585C5160C0B2D822054B9200BA
:402940001968114201D000201A6008BDEC02002000FEFFFFC00F0740134B10B519685A68914208D1114A11680F220A40082A02D00F4B186017E01A68511C3F3A541EA24148
:40298000524211405A689142FCD00224094AC0B214605A1810721960074B1A68224202D11A6822431A6010BD6C0500200802064040020640800F0640880F0640024B1868E4
:4029C0000006C00F7047C046040004400023044A48329850A422043392009342F7D170476C050020044B986D002803D000220120024B1A707047C046EC07002073000F40BB
:402A0000114A002803D000231049D3650B70A423D16D9B004B430E49CB189B6C116ECB40516E0B400B49D8B20870180A1B0CC0B2DBB208700B70012309219366064B19705C
:402A4000002393657047C046EC07002072000F406C05002043000F4073000F40F7B5051C2F4B01910093002D06D00020A3212A1C00F086FC00261CE0281CFFF7A7FFF9E7D8
:402A8000381C00F061FCFF239C430443381C00F05BFC244B00041C40044302F055FDA42100F002FF0136081C211CFFF7E5FE122E11D0F7B2381C00F047FC1B4B02021C40FA
:402AC000019B1443002BDBD0164A030414401C43FF239C43E0E7FFF785FF0028FBD00120FFF78EFF0F20FFF7D1FE009B013B0093002BB8D1C924002D11D00020A3212A1CE3
:402B000000F03EFCFFF76EFF0028FBD00120FFF777FF013C0320FFF7B9FE002CEDD1F7BD59020000FFFF00FFFF00FFFFF0B585B000F0F4FA00250190A4230024009300207C
:402B4000A32C03DC2A4AA300D318986C00F0E6FA061C33021B0E02936B462A1C1979C0B200F0BCFA019B370419043F0E0390090E381C2A1C00F0B2FA019B2A1C1902090EE6
:402B8000071C029800F0AAFAFF239E43039B3F021E43184B1E400304174837433840184300F016FB011C201CFFF766FE0023A4220134E10FA2424B415B421C40009B013B0B
:402BC0000093002BBBD1FFF7F9FE002801D1FFF775FEFFF707FF0028FBD00120FFF710FF01353220FFF752FE642DA5D105B0F0BD6C050020FF00FFFFFFFF00FF08B5FFF7B1
:402C0000E5FE0120FFF7FCFE08BD00001D4A08B5111C1D4B6C311B78DBB20B705B0610D5D36D2121581CD065184B002805D1184A10701970FFF7E4FE22E01970012393652E
:402C40001EE0936EA32B18D8591C9166A421D06D4143CB180F499B00CB189B6C116ECB40516E0B400C49D8B20870180AC0B21B0C08701367DBB20B7002E01122034B1A7058
:402C800008BDC046EC07002063000F4073000F4072000F406C05002043000F400023F7B59A008049032B01D87F4989587F4801338150302BF4D172B601227D4B00211A7052
:402CC00080227C48D20002F009FC80227A48D200002102F003FC0022141C7849FF25575818313E1C081C6300AE433D4001336419CB186100013141188B4206D0581E0078CE
:402D00001D78801905700233F6E70432182AE4D1C0226B4B92031A606A4A6B4BA2211A6099226A4BC9051A609923694A1B041360684A3C241360684A68481160684A6949EE
:402D40001360694A13600122684B1A600223684A13600A781A430A700278A243283C2243027016200A78634C02430A708021624A271C11608021614AC90311602421604A8E
:402D800011606049604A1160C021604A090111605F4A60491360604A116031215F4A13605F4A13605F4A11605F4A136080222368D2021343236002F045FB5C4B01901B7861
:402DC000292B04D95A4B1D785A4BEDB21EE05A4B1B78292B04D9594B1D78594BEDB215E0584B1B78292B04D9574B1D78574BEDB20CE0574B1B78292B04D9564B1D78564B44
:402E0000EDB203E0554B1D78554BEDB21C783F23544EE4B232681A4000922F2A04D92F230520336002F004FB4F4B504A1B78D220DBB213604E4B1D604E4B1C6002F0F8FAEF
:402E4000009B2E2B04D82F230520336002F0F0FA019802F0FBFA484A484B1A602022484B1A60484B103A1A608022474B12061A608023DB023B60454A454B1A60454A464B3D
:402E80001A600023454A1360454A1360454B1A68002A00D11A6080220121D20513680B431360F7BD7528000000130000000000201C700F4000300F4000400F40C07700006F
:402EC0000400014099EE00000C0001401000014000500F4010500F4018500F4001700F4020500F4000700F4030500F402000004000800F4000010B4000000440080004404B
:402F00000001044080121B00080104400802044000030440B10D00000803044018030440000404400804044018040440C0F1FF0FC1F1FF0FC2F1FF0FC3F1FF0FC4F1FF0F94
:402F4000C5F1FF0FC6F1FF0FC7F1FF0FC8F1FF0FC9F1FF0FCAF1FF0FCBF1FF0FCCF1FF0FCDF1FF0F2CFF0B40F7F1FF0F28FF0B401CFF0B4020FF0B400600008004010B40C5
:402F8000080202400C02024008010B4004000080000002401D000080400002400C020B40C8000020C0000020031C10B580240849084A08686400C3189A1AA24201DC0B6061
:402FC00005E002F05FFA0C2303600120404210BDDC000020700A0020F7B503041B0EC6B200020093030E0C1C0193002A03DB642A02DD642200E00022101C01F0FDF92449D6
:4030000000F0F2FD051C301C01F0F6F9071CE0B2801B01F0F1F9291C00F01EFF011C381C00F066FC061C019801F0E6F9019B071C2002000EC01A01F0DFF9291C00F00CFFC7
:40304000011C381C00F054FC0190009801F0D4F92404009B240E071CE01A01F0CDF9291C00F0FAFE011C381C00F042FC00F028FCC4B2301C00F024FC25022C1CC0B2044315
:40308000019800F01DFCC0B200042043FEBDC0460000C84270B50F490F4B01394A1C15D000221E685C689D68A018AA4203D0B058A0500432F8E7021CDC68151AA54202D02F
:4030C000002520C2F9E710330139E7E702F0E0F9FEF7C6F901000000CC7D0000F8B5161C0C1C071C01F088F9051CE01B01F084F9041C301C01F080F9074900F075FD011C0A
:40310000201C00F0A9FE011C281C00F0F1FB00F0D7FBC0B2F8BDC0460000C842F0B503040402240E1B0E85B0E2B2C6B2DFB20192251CB74203D2BA4205D91D1C03E0019A74
:40314000B24200D9351CEDB2B74204D9E2B2BA4205D21C1C03E0E3B2B34200D2341CE4B20020002C2FD0FF20651B6843211C00F0B5FAC3B2029323040393029B0398002B5D
:4031800021D02B23BC4206D1019A291CB01A584300F0A4FA0FE0B44207D1019A291CD01B584300F09BFA553005E0B81B5843291C00F094FA5538C3B2029A0448120218408F
:4031C000039B1043184305B0F0BDC046FF00FFFFF8B506040402360E240E274D002E05D12002254028432404204344E0C7B2B8B22B2100F0E3F92B2380B25B424343FF181D
:4032000006235F43FF22BBB21F1CD31A774373433F121B12911BD71BD31A61436743634309123F121B12C0B2C9B2FFB2DBB2042816D800F0AFF91703060B1000231C3C1C58
:4032400010E01A1C231C0C1C111C0BE0231C0C1C191C3B1C06E01A1C0B1C211C141C01E00B1C391C1D40281C24022043034C09040440201C0843F8BDFF00FFFFFFFF00FFA9
:403280000549064A0B885A43054BD21893B20B80DBB24343180A7047E00000200508000019360000F0B5071C85B0101C1C1C0291FFF734FF0190201CFFF730FF3C1C012660
:4032C000019D0390029B01339E4230DC6B46321C197B1879FFF702FFFF239D430543281CFFF776FF011C201CFFF7C6FA0B9BE41800D53C1C029BE10FFA18D317A2424B41F5
:403300005B421C40FFF75AFB002801D1FFF7D6FA0A9B002B09D0FFF765FB0028FBD00120FFF76EFB0A98FFF7B1FA0136CAE7FFF759FB0028FBD00120FFF762FB6420FFF7C1
:40334000A5FA281C05B0F0BD10B5041C02F0FCF8142100F0A9FA03200A290FD002F0F4F8FF2100F0A1FAC8B2611C00F0B7F9C0B2042C03D94008062C00D9400810BD00003A
:40338000F8B5051C0E1C171C041CAB199C420FDC0020A32C02DC074AA300D05800213A1CFFF71AFE011C201CFFF766FA0134ECE7F8BDC046B4050020F0B500252E1C85B033
:4033C000039001910292039B9E4229DA0124671E002D05D0381C0199FFF74EFA201C04E0201C0199FFF748FA381C02990234FFF743FAA52CEBD101235D1BEDB2FFF7F2FA8B
:403400000028FBD00120FFF7FBFA6420FFF73EFAFFF7D4FA002801D1FFF750FA0136D2E705B0F0BD70B50B1C061CA32900D9A32300259CB2A54205DC281C311CFFF71CFADA
:403440000135F7E7FFF7CEFA0028FBD00120FFF7D7FA70BDF7B50C1C01921D1C061E02D1261E1ED119E00136731E18780028F7D0FFF772FAF7E73F4E3F4932680B689A422A
:4034800017D13E4B1A680F231340082B11D03C4B1860013420780028EDD1019B002B39D151E00136731E18780028F3D0FFF754FAF7E733685A1C1F3B5F1EBB415B421A408C
:4034C0000B689A42FCD002212E4B19602E4B98542E4B32601A680A42DBD11A680A431A60D7E7013FBFB2002F25D00520FFF7CEF9FFF7FCF90028F4D0FFF706FA80233055FF
:4035000001349B009C420FD1013DADB2002D2ED0002C12D180221E4E0021301C920001F0DDFF00243227E3E73319013B1B780A2BDED1A4B2E8E73C1CE6E7301C019901F0E5
:403540005BFF0028E6D0FFF7D1F9002804D0FFF7DBF9FFF701FAF6E7FFF7C8F9002804D0FFF7D2F9FFF7F8F9F6E7013000E0281CFEBDC046F8040020FC04002008020740E4
:4035800040020740800F074000050020880F07406008002002B4714649084900095C49008E4402BC7047C04603B47146490840004900095A49008E4403BC70470022430876
:4035C0008B4274D303098B425FD3030A8B4244D3030B8B4228D3030C8B420DD3FF22090212BA030C8B4202D31212090265D0030B8B4219D300E0090AC30B8B4201D3CB0325
:40360000C01A5241830B8B4201D38B03C01A5241430B8B4201D34B03C01A5241030B8B4201D30B03C01A5241C30A8B4201D3CB02C01A5241830A8B4201D38B02C01A52414F
:40364000430A8B4201D34B02C01A5241030A8B4201D30B02C01A5241CDD2C3098B4201D3CB01C01A524183098B4201D38B01C01A524143098B4201D34B01C01A524103095D
:403680008B4201D30B01C01A5241C3088B4201D3CB00C01A524183088B4201D38B00C01A524143088B4201D34B00C01A5241411A00D20146524110467047FFE701B50020B4
:4036C00000F0FCF802BDC0460029F7D003B5FFF775FF0EBC4243891A1847C04603460B437FD4002243088B4274D303098B425FD3030A8B4244D3030B8B4228D3030C8B429F
:403700000DD3FF22090212BA030C8B4202D31212090265D0030B8B4219D300E0090AC30B8B4201D3CB03C01A5241830B8B4201D38B03C01A5241430B8B4201D34B03C01AF7
:403740005241030B8B4201D30B03C01A5241C30A8B4201D3CB02C01A5241830A8B4201D38B02C01A5241430A8B4201D34B02C01A5241030A8B4201D30B02C01A5241CDD24D
:40378000C3098B4201D3CB01C01A524183098B4201D38B01C01A524143098B4201D34B01C01A524103098B4201D30B01C01A5241C3088B4201D3CB00C01A524183088B4275
:4037C00001D38B00C01A524143088B4201D34B00C01A5241411A00D201465241104670475DE0CA0F00D04942031000D34042534000229C4603098B422DD3030A8B4212D33D
:40380000FC22890112BA030A8B420CD3890192118B4208D3890192118B4204D389013AD0921100E08909C3098B4201D3CB01C01A524183098B4201D38B01C01A52414309F4
:403840008B4201D34B01C01A524103098B4201D30B01C01A5241C3088B4201D3CB00C01A524183088B4201D38B00C01A5241D9D243088B4201D34B00C01A5241411A00D284
:403880000146634652415B10104601D34042002B00D54942704763465B1000D3404201B5002000F00BF802BD0029F8D003B5FFF715FF0EBC4243891A1847C0467047C04674
:4038C0009E2110B5C905041C01F0B4FC002803D1201C00F071FD10BD9E21201CC90500F0EDFB00F069FD80231B069C466044F2E7F8B54A00430244004E02C50F240E281C1E
:403900009B09120EC90FB7098D4240D0A01A002800DC84E0002A1CD1002F5CD15A0704D00F221A40042A00D004338022D2041A40281C002A24D00134FF2C00D17BE09B0166
:403940005B0AE4B25B02E4055B0A2343C0071843F8BDFF2CE2D08022D204174301261B2808DC391C20223E1CC140101A8640771EBE410E439B1B5A0133D4281C5A07CFD143
:40398000DB08FF2C1ED05B025B0AE4B2DAE7A11A002957DD002A3AD0FF2CBFD08022D204174301261B2972DD9B195A01E5D50134FF2C00D187E001218A4A194013405B08FA
:4039C0000B43ABE7002B36D08022D20313435B025B0AFF24B6E7013800283FD1DB1B5A01CBD59B019E09301C01F02EFC05388640844223DC001B1F24321C431C201ADA4034
:403A00008640131C741EA6410024334386E7002F00D183E70139002950D1DB19C5E7002820D1621CD2B2012A5EDDDE1B720128D5FE1A0D1CD7E7FF24002383E7694B241AF8
:403A400033406BE7002958D1621CD1B201293CDDFF2A37D0FB185B08141C5FE7FF2C00D07CE75BE7002C1ED0FF2A23D08024E404404223431B285BDD0123FB1A141C0D1C78
:403A8000ADE7002EAFD100230020002478E73A1CCA40944620223E1C511A8E406246771EBE41164380E7002B3ED0C0430028E4D0FF2ADFD13B1CFF240D1C2FE7FF2C00D04E
:403AC0006FE72BE7FF2400235AE7002C5AD1002B7FD0002F00D121E7DB195A0100D44CE7404A0134134019E7002C15D1002B2FD1002F5DD03B1C0D1C10E7002C21D1002B3D
:403B000053D0C943002904D0FF2A4BD01B2957DD0123DB19141C48E7002B22D1002F4AD03B1C0D1CFF24F9E63B1C141C0D1CF5E61D1C2024C540201A8340581E83412B438B
:403B40009BE7FF2A2ED08024E40449422343DDE7002F00D1E2E6DA1B50013CD5FB1A0D1CDCE6FF24002F00D1D8E68022DB08D203134204D0FE08164201D1331C0D1CDB0055
:403B8000FF24CBE6002B0DD0FF24002F00D1C5E68022DB08D2031342F1D0FE081642EED1331CECE73B1CFF24B8E63B1C141CB5E6231C0020E4E6802300209B04FF24DFE6FF
:403BC0001E1C2024CE40611A8B40591E8B4133439FE73B1CA2E6131E00D0CEE600230020CEE6C046FFFFFFFBF0B556464D465F464446F0B443024500C70F83B08A465C0ABB
:403C00002E0EB94641D0FF2E26D080231B042343DC00002398469B467F3E53465B025D0A53465A00DB0F120E9A4639D0FF2A33D080231B042B43DD0000237F3A5146B21AB7
:403C400046467940081C01921E430F2E00D976E07E4AB6009659B746002C30D108239846063B9B46D9E780230021DB03FF245B02E4055B0AC90723430B43181C03B03CBC26
:403C800090469946A246AB46F0BD002C28D104239846033B9B46C0E7002D1FD1022302E0002D11D10123B21A50464646784001921E430F2E27D86649B60089598F460C2361
:403CC0009846093B9B46A8E7281C01F0BDFA7622431F52429D40121A0023AFE70323ADE7201C01F0B1FA431F9C4076235B421E1A002398469B4690E70025D1469B465B46A1
:403D00004846022B6FD10121FF2401400023AEE77E23019A5B429B1A1B2B6DDD01214B46194000240023A2E78023DB031C4249D18023DB0323435B025B0A391C96E7630178
:403D40006D01AB4237D389461A2001215B1B01241E1C49005B00002E01DBAB4201D35B1B214301380028F3D1581E83410B431D1C019C7F34002CCBDD6B0704D00F232B40A8
:403D8000042B00D004352B0104D5019A314B8032141C1D40FE2C07DD4B460121FF241940002364E7251CAAE701214A46AB015B0AE4B211405BE7019A8946013A01921B2094
:403DC0000021C4E71D4207D023435B025B0A391C4CE700256302ABD58023DB032B435B025B0A514642E7032B25D0012BC0D101210024014000233AE7291CD9402B1C019AAB
:403E00009E3293405D1EAB410B435A0704D00F221A40042A00D004335A0105D54B46012101241940002322E701214A469B015B0A114000241BE7802301214A46DB032B43D8
:403E40005B020A405B0A111C10E7C046C87A0000087B0000FFFFFFF7F0B55F4656464D464446F0B445024600C40F83B00F1C6D0A360EA34645D0FF2E25D080231B041D43F1
:403E800000239A46ED007F3E01937B025B0A98467800FB0F000E994640D0FF2838D0802342461B041343DB00984600237F384A46019F30186240411C1F430F2F69D87D4EFD
:403EC000BF00F659B746002D45D108230193063B9A46DAE793465346022B2FD15B46012400251C40FF236D02DB056D0AE4071D432543281C03B03CBC90469946A246AB46D5
:403F0000F0BD002D2CD104230193033B9A46BCE743465A4253410322D31AC8E742460123002AC4D0404601F08FF94246431F9A4076235B42181A90460023B8E7032B00D188
:403F4000ADE0012B00D08CE05B4654461C40E4B200230025C7E70C230193093B9A4694E7281C01F071F97626431F9D4000237642361A01939A4688E780250024ED03FF2364
:403F8000B1E74546CB469A46A5E7454693469A46A1E743462C041B0C9C46230C444626041C1C360C2F0C7443351C66467D4373437743EB18260C9E19B54203D980235B0298
:403FC0009C46674424043304240C1B199D016C1EA5419B0E360C2B43BD19AD011D432B0104D5012368081D400543081C031C7F33002B2CDD690704D00F212940042900D0E5
:404000000435290103D52C4B1D40031C8033FE2B17DD0124FF231440002564E78020C003054209D04346034206D1454605436D026D0A4C46FF2356E705436D026D0AFF2355
:4040400051E70124AD016D0ADBB214404BE77E235B421B1A1B2B07DD012400231440002541E7081C5A46C1E79E30291C8540D940681E85410D436B0704D00F232B40042B1A
:4040800000D004356B0104D5012401231440002529E70124AD016D0A1440002323E78023DB031D4301245B466D0223401C1C6D0AFF2318E7487B0000FFFFFFF7F8B54A001E
:4040C000430244004D02C00F240E061C9B09120EC90FAD09FF2A00D175E001277940884250D0A01A002800DC8FE0002A1ED1002D00D075E05A0704D00F221A40042A00D003
:40410000043380220120D2041A403040002A32D00134FF2C00D184E09B015B0AE4B25B02E4055B0A2343C0071843F8BDFF2CE1D08022D20415431B287ADD01255B1B5A0168
:404140005DD59B019F09381C01F07EF805388740844269DC001B1F243A1C431C201ADA408740131C7C1EA74100243B43C2E7131E45D100230020DB08FF2C28D05B025B0A83
:40418000E4B2CCE7A11A00295BDD002A2ED0FF2CB0D08022D20415431B2974DC2F1C2022CF40511A8D40691E8D413D435B195A0125D50134FF2C74D001217E4A19401340B7
:4041C0005B080B4396E7002D00D088E785E7002B27D08022D20313435B025B0AFF249EE701380028AAD0FF2CA5D183E7002D00D180E701390029D9D0FF2CCDD17AE75A077E
:4042000000D079E701203040B5E7002825D1621CD2B2012A55DD5F1B7A012DD5EF1A0E1C91E7FF2400237AE7624B241A3B4061E7291C2022C140101A8540681E85410D439A
:404240007CE7002946D1621CD1B201292BDDFF2A26D0EB185B08141C4CE7002C15D0FF2A1AD08024E404404223431B284DDD0123EB1A141C0E1C62E7002F00D063E7002343
:404280000020002477E7012590E7002B39D0C0430028EDD0FF2AE8D12B1CFF240E1C29E7FF24002367E7002C5AD1002B7FD0002D00D11FE75B195A01A1D53E4A013413405F
:4042C00018E7002C15D1002B2FD1002D5ED02B1C0E1C0FE7002C21D1002B54D0C943002904D0FF2A4CD01B2958DD01235B19141C5DE7002B23D1002D4BD02B1C0E1CFF2485
:40430000F8E62B1C141C0E1CF4E61E1C2024C640201A8340581E83413343A9E7FF2A2FD08024E40449422343DDE7002D00D1E1E65A1B500100D41AE7EB1A0E1CDAE6FF2488
:40434000002D00D1D6E68022DB08D203134204D0ED08154201D12B1C0E1CDB00FF24C9E6002B0DD0FF24002D00D1C3E68022DB08D2031342F1D0ED081542EED12B1CECE75D
:404380002B1CFF24B6E62B1C141CB3E6231C0020F1E6802300209B04FF24ECE61F1C2024CF40611A8B40591E8B413B439EE72B1CA0E6C046FFFFFFFB4202510A4200C30FC2
:4043C000120E00207E2A0DDD9D2A0CDC802000040143952A0ADC9620821AD1400A1C58424240D0187047034A9818FBE7963A91400A1CF4E7FFFFFF7F70B5041E39D0C50F4A
:4044000000D04442201C00F01FFF9E23261C1B1A962B07DC082801DD083884406402640AD8B21EE0992B0ADD0522211C121AD1400A1C011C1B318E40711E8E411643052805
:4044400001DD421F96400F4C3440720704D00F221640042E00D0043462010ED4A401640AD8B26402C005640AED0704432C43201C70BD002500200024F3E7024B1C409F230E
:404480001B1AEBE7FFFFFFFBF0B5454657464E4694464C000A03C90FE0B488460E1C1903470FC500480A6146490F01436046520A1743C0005A00640D520DDB0F8446984562
:4044C00000D1A7E0A01A002800DC01E1002A3DD163460B4300D0D4E06B0700D188E00F232B40042B00D183E02A1DAA42AD4180236D427F191B043B404646151C002B00D108
:404500007CE0CC4B01349C4200D1FDE03A1CCA4BED081A405007640552020543120B640D002112030B0D1B056405120B1A436308C24CF60714401C43640064083443281C9E
:40454000211C1CBC90469946A246F0BDB94B9C42C2D080231B041943382800DDECE01F2800DD21E120220E1C6346121A9640C340334366469640321C561EB24113430A1CD8
:40458000C240EB1A9D42B6411D1CBA1A7642971B3B0200D497E07A02560A002E00D1B6E0301C00F051FE031C083B1F2B00DDB7E09E40371C28262A1C361AF240161C9D40AD
:4045C0003E439C4200DDB2E01C1B621C1F2A00DDD8E01F23291C1C1B331CA540A340D1406C1EA541D64019430D43371C002473E780231B043B40464600D082E78D4BED08A2
:4046000078070543FA089C4232D012036405120B640D85E7A31A002B00DC94E0002A3CD0844A944200D157E7802212041143382B00DC05E163461943481E81410022C8B23E
:404640004019A8429B41051CD2195B42D7183B0239D5784B01349C4200D14CE10120764A6B083A4028401843D5070543570833E72B1C134348D080231B031A431203120B31
:404680004EE70138002878D16346EE1AB5429B417A1A5B42D71A351C7AE7021C0A4300D11AE7013B002B00D0F2E04019A8429B41CA195B42D718051CC9E7131C334300D1A8
:4046C00018E1171C351C46466B0700D007E795E700287AD1621C5205520D012A00DCFBE06246AA1A9542B6419146781A7242861A320200D493E06246551BAC458041CF1B56
:4047000040423E1A984648E70022002508E7281C00F09AFD2030031C083B1F2B00DC47E7283885402E1C00259C4200DC4CE7424AE41A1640371CCFE6634619434B1E9941DA
:404740000022CBB21DE7002B00D0F2E0601C43055B0D012B00DCA4E0364B984200D121E163465C19AC429B41CF195B42FA186408D50725435708041CAEE62E4B9C4200D07A
:40478000EAE6A9E6211C331C1F39CB40191C202A00D182E03F231C1BA64035436E1EB54100270D4300248EE7031C0E1C203BDE40202874D040231B1A99400B1C624613438C
:4047C000591E8B4100223343DBE6002C50D0194CA24200D1A8E08024240440422743382800DDD9E01F2800DD39E120243E1C241AA640B0462E1CA146C640444626434C46CF
:40480000A5406C1EA541C74035436046451BCF1BAC45894149427F1A141C9846B8E64B464D46334300D0B8E60026002700240025E4E6C046FF070000FFFF7FFFFFFF0F80AC
:404840001F2B5BDC2022081CD21A9040814660469246D8404A4610438146524660469040021C501E8241484610430A1CDA40E7E63C1C2C4358D0C043002851D16046451B01
:40488000AC458041CF1B40423F1A141C98467FE68F4A944200D0CAE61EE600267DE700238CE73B1C2B43002C00D0BDE0002B00D1F5E063460B4300D10EE663465B19AB42C6
:4048C0008041CA19404217183A0200D4FCE0814A1D1C17400134FFE53A1C2A43002C51D1002A00D085E062460A4303D00F1C65469846F1E50026002700257FE6181C0A1C10
:404900002038C240202B00D1A7E04020C01A8140081C63461843411E8841104300228FE66B4CA24200D05AE70F1C6546141C9846D2E5002C3AD1381C284371D0DB43002B7E
:4049400018D0634882426BD0382B00DD9DE01F2B00DDA7E020203C1CC01A8440A1462C1C8246DC404846044350468540681E8541DF402543654465459B417F185B42FF1874
:40498000141C64E6002A19D162460A4377D00F1C654698464E4C9FE53D436F1EBD410027EDB232E7041C0027002527E64848824236D0802000045B420743C5E762460A4372
:4049C00049D08024ED087807FA0824032843224209D0CE08264206D162464F07381CD20810439846321CD200470F1743C500384C72E562460A4300D16EE56246AE1AB54253
:404A00009241781A5242821A100200D455E66246551BAC458041CA1B4042171A98465BE50F1C6546141C57E5002B34D063460B4311D08024ED087807FA08240328432242E7
:404A4000D1D0CB082342CED162464F07381CD20810431A1CC7E71E4C3EE5002059E7041C3E1C203CE640341C20282BD04026301A87403D436F1EBD4100272543C5E680277C
:404A80000026FF03124C0025B8E53D436F1EBD410027EDB26EE70F1C65460D4C1CE50F1C654619E51C1C381C203CE040041C202B0CD04020C31A9F403D436F1EBD410027E7
:404AC000254357E70027D4E71D1CFCE50027F3E7FF070000FFFF7FFFF0B55F4656464D464446F0B4051C061C080387B099464F00030BCC0F92469B467F0D019467D06C4B86
:404B00009F4236D080205B4640031843C0006B0F1843684B83469C4600239846EE00674400934B4649461D03C90F5B0052462D0B5B0D894600D16EE05D498B4264D08020AF
:404B40005C4940038C4600210543ED00500F0543D20063444846FF187B1C9A46009B604002900B430F2B00D9ACE053489B00C3589F465B461D4300D082E0082300930023E5
:404B80009B46023300269846CBE7029B01934346022B59D1012400250026019B1C40444B00212D030A0D12052D0B1543434A1B0515401D436D00E4076D082543301C291CEA
:404BC00007B03CBC90469946A246AB46F0BD2B434ED05B46002B00D185E1584600F034FB021C2823291C9B1A161C5846D940083EB0400B1CB54003439B462E1C0023304FCE
:404C00000093BF1A98468CE7514629432ED10025002202219EE75146294323D0002D00D154E1281C00F010FB031C28215046C91A1A1CC8405146083A914095400A1C054352
:404C40001F480021C31A85E7032B00D1C2E1012B00D06DE14446019B00251C40E4B2002300269DE700250022012173E7032171E70423009300239B4601330026984650E701
:404C80000C230093093B98464BE7802500242D030026074B84E74B46AB46161C0193884675E7029BAB46161C019388466FE7C046FF07000001FCFFFF887B0000FFFF0F8081
:404CC0000DFCFFFF330C3604360C9C46331C140C1204120C53439846634653439946634663430193331C41466343090C4B445B18994505D980204002814601994944019147
:404D0000190C039141460904090C1B045B1804932B0C9846331C2D04290C4B43604600934346654658435E43009B4D431B0C9946AE194E448446B54203D980235B029946E1
:404D4000CC44350C2B1C0398634484460593009B36041B041B0CF3189C446046039058460504060C280C84465043351C81466046654344434846000C8346724314195C449C
:404D8000A24203D98022520293465D44220CAD184A461204120C24044046A41862464A437143464360460096464670438046100C84468844E044414505D9802149028C46F7
:404DC000009961440091019803998446614499429B415B4299460598434684461204120C1B049B1863449C46AB4683429B4140460A19CC44A2428941E344CC45B6415C46C4
:404E0000000C8046494276425B426418334398448C428941AB459B4149425B4219430D1C009B4544EE187602E50D2E43B346049B56021E43731E9E415B46D20D32436602BE
:404E40001643DB010AD50123334076081E435B46DB071E435B465B089B465746634BFB18002B5ADD720709D00F223240042A05D0321DB242B6417642B344161C5A46D20199
:404E800006D55A465A4B1A4080239346DB00FB18584A934234DD0124029B00251C400026554B7DE680205B460003034208D0054206D105432D032D0B4C46161C4E4B6FE639
:404EC0005D4605432D032D0B4B4B69E6504600F0BBF9031C2033272B00DCA6E65546083885400022ACE6281C00F0AEF9021C2032272A00DC75E6083885400026AB467DE66E
:404F00005A46F608520716435A4601245502029A5B052D0B5B0D144042E6384DED1B382D0ADD0124029B00251C400026002337E6019B5746029391E71F2D25DC304B321C0F
:404F40009C466744BE405B46BB40371CEA407E1EB74113433B431E1C5B46EB401D1C730709D00F233340042B05D0331DB342B6417642AD191E1C2B0220D50124029B0025ED
:404F80001C40002601230BE65A461E4BDB1BDA40131C202D1CD01C4A94465A466744BA40171C3E43721E96411E4307230025334007D00F2300253340042BD6D16B076D02BE
:404FC0002D0B0124F6081E43029B1C400023E7E50027E6E780255B4601242D031D43019B2D0323401C1C2D0B034BD9E5FF030000FFFFFFFEFE070000FF07000002FCFFFF6F
:405000001E040000E2FBFFFF3E0400004200120E511C38B5C9B243025D0AC40F012915DDE02189008C466D071B0B62440021281C0D0D2D052B431C4D52052B4052081343C9
:405040005B00E4075B082343191C38BD002A15D1002D1FD0281C00F0F7F80A281DDC0B232A1C1B1ADA40131C021C153295400F4A1B03121A52051B0B520DD7E7002D06D011
:4050800080221B0B120313436D07094ACEE7084A0023CBE700220023C8E7031C0B3B9D402B1C0025E3E7C046FFFF0F8089030000FF07000070B50B034D00440F6D0D5B0AD7
:4050C00023436C1C6405C90FC200640D012C2ADD3B4C2C19FE2C1ADC002C35DD8001451EA841DB000343520F13435A0704D00F221A40042A00D004338022D2041A4027D08D
:405100000134FF2C03D09B015B0AE4B201E0FF2400235B02E4055B0A23435B00C9075B080B43181C70BD002D06D113430ED100245B025B0AE4B2ECE71A43E8D08020DB0018
:4051400080040343FF24D0E717340CDA05230024DB08FF2CECD1002B2DD08022D20313435B025B0AD5E78024164824042343401B1F280DDC144CA4466544AB401C1C131C70
:40518000AB405D1EAB41C240234313430024ACE71E1C0E4C641BE640341C20280DD00C4884466544AB401D1C2A43531E9A41131C2343002499E70023ABE70025F4E7C046E2
:4051C00080FCFFFF9E03000082FCFFFF7E030000A2FCFFFF8446081C6146FFE71FB500F0C5F8002801D40021C8421FBD10B500F049F84042013010BD10B500F0B7F80028F9
:4052000001DB002010BD012010BDC04610B500F0ADF8002801DD002010BD012010BDC04610B500F059F8002801DC002010BD012010BDC04610B500F04FF8002801DA002065
:4052400010BD012010BDC0461C2101231B04984201D3000C10391B0A984201D3000A08391B09984201D30009043902A2105C40187047C04604030202010101010000000080
:4052800000000000430270B542004C005D0AC30F4802120E460A240EC90FFF2A05D0FF2C08D00120A2420BD070BD0120002DFBD1FF2CF6D10120002EF6D10120A242F3D100
:4052C000B542F1D18B4205D0002AEDD1281C431E9841E9E70020E7E7F0B543024D024A0044005E0A240EC30F6D0A120EC90FFF2C0DD0FF2A31D0002C0DD177427741002AB6
:4053000023D1002D21D10020002F0BD107E0002E28D1FF2A21D0002A05D08B4207D0584201231843F0BD002DF9D08B42F7D19442F5DC04DBAE42F2D80020AE42F2D2584265
:40534000434101205B421843ECE7002FE5D048424141012049420843E4E7002D02D1002CCBD0DAE702204042DCE7C0464302F0B542004C005E0AC30F4802120E450A240E79
:40538000C90FFF2A0FD0FF2C1AD0002A10D177427741002C29D0002F17D0484241410120494208430BE00220002E08D1FF2C07D0002C0AD1002D08D1584201231843F0BD55
:4053C0000220002DFBD1002AE1D08B42F4D1A242F2DC04DBAE42EFD80020AE42EFD25842434101205B421843E9E7002DD3D10020002FE4D1E0E7C04610B50378021C002BDA
:4054000005D10978181C00290FD00FE001321378002B08D00023C85C002806D0D45C8442F4D10133F7E7181C00E0101C10BD00000230800804D0C0460138FDD1C046C04663
:40544000C0467047EFF3108072B6704780F310887047C046C046C0467FB5094B02A9186800F0AEF8431C09D0029A039B94466344181C049BC0180193059BC01807B000BDE3
:4054800044010020014B18687047C046440100200E4B70B500251E1C0D4CE41AA410A54204D0AB00F35898470135F8E702F07CFC084B00251E1C084CE41AA410A54204D02F
:4054C000AB00F35898470135F8E770BDB47D0000B47D0000B47D0000BC7D0000031C8218934202D019700133FAE7704738B5104B051C1C68A36B002B15D1182000F066F882
:405500000C4BA06303800C4B012243800B4B83800B4BC3800B4B038105234381063383810023026143610022A36B1D615A6138BD440100200E330000CDABFFFF3412000072
:405540006DE6FFFFECDEFFFF154B10B51C68A36B002B15D1182000F039F8124BA0630380114B01224380114B8380114BC380114B038105234381063383810023026143619B
:40558000A46B0D4A206961690C4B00F093F80122002380185941206161614800400810BD440100200E330000CDABFFFF341200006DE6FFFFECDEFFFF2D7F954C2DF4515876
:4055C00008B5081C00F0A0F808BD000008B5034B011C186800F004F808BDC04644010020032370B5CC1C9C430834051C0C2C01D20C2405E0002C03DA0C2300202B6042E025
:405600008C42F9D3204A1368101C191C002913D00A68121B0DD40B2A02D90A608B181FE08B4202D15A6802601BE04A685A600B1C17E00B1C4968E9E7144E3368002B03D1F5
:40564000281C00F025F83060281C211C00F020F8031C421CD0D00322C61C964386420AD11C60181C07210B301A1D8843821A0AD05142995007E0311A281C00F009F8431C53
:40568000BAD0331CECE770BD640A0020600A002038B50023064C051C081C2360FDF784FC431C03D12368002B00D02B6038BDC046680A0020F0B54F46464605042D0C2C1C3A
:4056C000C0B41704160C3F0C9946030C7C4375435F4373437D19260CAD199C46AF4203D980235B029846C4444B465143434324042E0C240C2D0466442C1959188919201C22
:405700000CBC90469946F0BD58220120014B40421A607047680A002030B5254A4B0087B0051C0C1C5B0893421EDD224A934205DD2A1C231C01F0F0FA07B030BD02AA00F0FE
:405740003BF803231840012822D0022813D0002825D0049A059B0298039900F045FA80231B069C466144E7E7002300220093002300F09CFFE0E70124049A059B0298039991
:40578000009400F093FF80231B069C466144D3E7049A059B0298039900F026FACCE7012402980399049A059B009400F07FFFC3E7FB21E93FFFFFEF7FF0B556465F464D4629
:4057C000E0B44B005E08D44B90B08A469E4200DC89E0D24B91460C1C051C9E4222DCD04A002C00DCBEE1CF4B01F096FACD4B041C0D1C9E4200D190E0CB4ACC4B01F08CFA74
:40580000021C0B1C4946201C0A604B60291C01F083FAC64BC44A01F07FFA4B469860D960012069E0C24B9E4200DC93E0C14B9E4268DCC14932158B4693445B461B05F51AA6
:40584000291C041C01F0E2FD01F016FE021C0B1C201C291C0A920B9301F05EFA0022B74BFFF73AF90F1C061C01F0D0FD01F004FE041C0D1C221C2B1C301C391C0C940D95A9
:4058800001F04AFA0022AD4BFFF726F9002200230E900F9101F0F8F8002800D181E100230022201C291C01F0EFF80222431E9841131A02220092A24A0AA8019249465A4686
:4058C00000F0ACFA5346002B16DA80224B46120694464A465B68404263445360D3684A466344D36008E0041C0D1C002000219060D16000201460556010B01CBC91469A463A
:40590000A346F0BD53462A1C01F006FA4B469860D960186059600020EEE7D322834B520501F0FAF9874A884B041C0D1C01F0F4F9021C0B1C4946201C0A604B60291C01F0F5
:40594000EBF9814B7F4A01F0E7F94B469860D9600120D1E700F05AFF7C4A7D4B041C0D1CFFF7BAF800227B4BFEF78EFD01F04EFD071C01F081FD6A4A6A4B04900591FFF7BB
:40598000ABF8021C0B1C201C291C01F0C5F9664A0290039104980599644BFFF79DF806900791029803991F2F33DC7B1E6A4A9B009B58B3422DD0069A079B01F0ADF90B1CF7
:4059C0000C1C021C4946051C0A604B60029803992A1C231C01F0A0F9069A079B01F09CF9061C0B1C4846321C8260C3605346381C002B00DB80E74B461D6080231B069C4657
:405A00004B4664445C609E604B466144D960784272E7069A079B01F07FF90B1C0C1C021C49460A604B60630036155B0D051CF31A102BCBDD04980599D3223C4B5205FFF70B
:405A40004BF8041C0D1C02980399221C2B1C01F063F9021C0B1C029803990892099301F05BF9221C2B1C01F057F9041C0D1C04980599344A344BFFF72FF8221C2B1C01F0C3
:405A80004BF9031C0C1C08980999069307941A1C231C01F041F9021C0B1C051C4846026043604B005B0D0C1C0899099AF31A02910392312B8ADD04980599B822224B92051D
:405AC000FFF70AF8041C0D1C02980399221C2B1C01F022F9021C0B1C089809990292039301F01AF9221C2B1C01F016F9041C0D1C04980599194A1A4BFEF7EEFF221C2B1CB2
:405B000001F00AF9031C0C1C02980399069307941A1C231C51E7C046FB21E93F7BD9024000004054FB21F93F3163621A61B4D03DFB213941FFFFEF7FEAFBFFFF0000704183
:405B40004C7C00007370032E8A19A33B83C8C96D305FE43F0000E03FCC7B0000C14920259A837B391B4BFEF78FFC1A4B041C0D1C9E4218D0184A194BFEF786FC021C0B1C31
:405B80004946201C0A604B60291C01F0C5F8124A124BFEF779FC4B469860D96001204042AAE6032385E6D3220C4B5205FEF76CFC0B4A0C4B041C0D1CFEF766FC021C0B1CD8
:405BC0004946201C0A604B60291C01F0A5F8044A044BDEE7FB21F93F3163621A61B4D03D7370032E8A19A33BF0B54F464646C0B487B000920193754B4F00814688467F08B3
:405C00009F4263DC01F002FC002800D1DAE04A46434648464146FEF75FFF041C0D1C6C4A6C4BFEF759FF6C4A6C4BFEF72DFC221C2B1CFEF751FF6A4A6A4B01F06DF8221CCC
:405C40002B1CFEF749FF684A684BFEF71DFC221C2B1CFEF741FF664A664B01F05DF8221C2B1CFEF739FF644A644BFEF70DFC221C2B1CFEF731FF02900391201C291C00224C
:405C80005F4BFEF729FF029A039B061C0F1C201C291CFEF721FF009A019B041C0D1C48464146FEF719FF021C0B1C201C291C01F033F8021C0B1C301C391C01F02DF8021C63
:405CC0000B1C00204F4901F027F870E04A464346FEF702FF041C0D1C3D4A3E4BFEF7FCFE3D4A3E4BFEF7D0FB221C2B1CFEF7F4FE3B4A3C4B01F010F8221C2B1CFEF7ECFE69
:405D0000394A3A4BFEF7C0FB221C2B1CFEF7E4FE374A384B01F000F8221C2B1CFEF7DCFE354A364BFEF7B0FB2B1C221CFEF7D4FE354B029003919F429FDD344B00229F429D
:405D40003ADC334900207B182E49161C1F1C00F0E3FF04900591201C291C0022284BFEF7BBFE321C3B1C00F0D7FF029A039B061C0F1C201C291CFEF7AFFE009A019B041CCF
:405D80000D1C48464146FEF7A7FE021C0B1C201C291C00F0C1FF021C0B1C301C391C00F0BBFF021C0B1C0498059900F0B5FF07B00CBC90469946F0BD164B0026049205934C
:405DC000154FC8E700200F49F1E7C046FFFF3F3ED43888BEE9FAA8BDC4B1B4BD9EEE213EAD529C804F7E923E9015CB19A001FA3E7751C1166CC1563F4C5555555555A53F00
:405E00000000E03F0000F03F3233D33F0000E93F0000E0FF0000E73F0000D23FF0B556464D4644465F46F0B48E4CA5440891191C141CA69A09938C4B9200D2580B1C0290CF
:405E4000013BE01E18211D1C161C07920093FDF745FCC343021CDB171A40D343111C0C925A00D318DB001B1904934C1BAE1918D4A79BA5009C46A61924AF6544013607E06B
:405E8000286801F0F9FA013403C70435B44208D0002CF5DA00200021013403C70435B442F6D1079B002B01DA00F0ECFB0022079B91460133DB009A46099B74AADB000692F9
:405EC00008229C465242624493460393009B002B00DA90E224AB9C465C464B46E046002600274C44083B029D644498442268636803CDFEF7F1FD021C0B1C301C391CFEF7AB
:405F0000C3FA083C061C0F1C4445EFD1069B4B441E605F6008239C46E144D145D6D1079A5249131C8C4663449B0010A8191C844691460433614463440B910D934B46DB0036
:405F40001A1C06990A9394460B1C63441E685F684B46002B32DD884610AB9A46444B4B44DB00984472AB9B460022424B301C391CFEF7B2FD01F04AFA01F07EFA00223E4B76
:405F8000041C0D1CFEF7A8FD021C0B1C301C391C00F0C2FE01F03AFA534601C39A464346201C1A685B68291CFEF76EFA08235B429C46E044061C0F1CD845D5D1049B301C91
:405FC0001A1C391C984600F0CBFCFF2300229B05041C0D1CFEF780FD00F01CFC0022274BFEF77AFD021C0B1C201C291C00F094FE0D1C041C01F00AFA824601F03DFA021C46
:406000000B1C201C291C00F087FE061C40460F1C002800DCCFE14B465A1E920010AB9B581825191C2D1A29418A44A94017255B1A2D1A10A98B502B410593059B002B4CDD15
:4060400001239C464B46E244002B00DC18E380250E960F9710AB0021002409486D044E4619E0C0468CFDFFFF547D0000FEFFFF3FFFFFFF1F0000703E0000704100002040AF
:40608000FFFFFF00002A02D0AA1A1A600134013104338E4209DD1A68002CF3D0821A01311A60012404338E42F5DCB1460E9E0F9F049B002B0EDD012B00D187E1022B09D12D
:4060C0004B465A1E920010AB9B5810A90E939B029B0A8B50059B022B7AD0301C391C0022002300F0D1FC002800D192E04B46591E079B8B420FDC10AA94460022CE4B0D98E5
:406100004B449B0063441C68043B22438342FAD1002A00D0E5E1079B10AA013B9B00D358002B00D0AAE201220B9B043B596801320029FAD04B464A4401330592934241DC66
:40614000A7990C9A8A469A18920092440A9A06999146009A8B469446099A63449B1A24AA9046DB009844059BD944DB009B44039B43441C1C5346186801F07EF9009B206026
:406180006160002B21DB00260027029D2268636803CDFEF7A1FC021C0B1C301C391CFEF773F9083C061C0F1C4445EFD14B469E60DF6004239C460433E2449C46E144E044D4
:4061C000D945D4D1059B9946B8E600260027EDE7321C3B1C0020994900F09EFD061C0F1C002C00D179E7049A0020944900F0B8FB021C0B1C301C391C00F08EFD061C0F1CD6
:40620000301C391C0022002300F03EFC002800D06CE753460993049B301C5A42391C00F09FFB0022864B041C0D1C00F051FC002800D12DE20022834B201C291CFEF74CFC39
:4062400001F0E4F84B46061C9F0001F015F900227B4BFEF741FC021C0B1C201C291C00F05BFD01F0D3F810ABD85101234B449846049B10AA1833049343469B00D650002002
:406280006E49049A00F06CFB4346041C0D1C002B00DAC8E09F0010AB9C464346DB0067449C46039372AB9946069E66440096386801F0E2F8221C2B1CFEF70EFC002230606F
:4062C0007160604B201C291CFEF706FC083E041C0D1C043F4E45EAD143460133029300239B464CAB9946079B9A46434604935346002B00DA94E05B46002B00DA90E0524BF7
:40630000009D984600260027002405E008239C460835E0445C4511DC4346186859682A686B68FEF7D9FB021C0B1C301C391CFEF7ABF80134061C0F1CA245E7DA5B46DB0074
:406340004B441E605F6001239C46009BE344083B0093029B9B45CAD1049B9846A69B022B00DD00E1002B00DDD7E018D1039B00204B441C1C0021454622686368FEF784F853
:40638000083C013DF8D2059B002B03D080231B069C4661440B1C021C08990A604B600720099B18409D239B009D443CBC90469946A246AB46F0BD049B002B12D14B46013BA1
:4063C0009B0010AAD558EB15059336E64B465A1E920010AB9B5810A90E935B025B0A8B5078E6301C0022194B00F072FB002805D10023059371E60026002787E501239C46CB
:40640000013305934B46E244002B00DD1FE6321C3B1C0020094900F07FFC061C0F1C5CE6002600278AE7A69B022B39DC002B0FDCB5D100200021A6E7FFFFFF3F0000F03FA5
:40644000000070410000703E687D00000000E03F059900220023002973D08021089809065918026041604C984D9900F055FC4346002B0BDD012446464EAD0CCD0134FEF750
:4064800003F8A642F9DA059B002B03D080231B069C4661440B1C021C08998A60CB607EE74CAB9946A69B032B00D078E7059B00200021002B00D1D0E08024089A4C9B240685
:4064C00013604B46A4465B686144634453604B469B68106193604B46DB6851616344D3605DE7534688460993434604999B0010AAD35818390491002B00D0C0E694464246BE
:40650000684B43449B006344043B5868013A18390028F9D090460491B1E6039B00224B441C1C00234AAD101C191C22686368FDF7ABFF083C021C0B1CAC42F4D10599002969
:406540008BD1191C101C089C206061604C984D9900F0E2FB4346002B8CDC0B1C021C08998A60CB601BE7A69B032B00D017E74346002B9BDD039B4B441E685F684A4B4344CA
:406580009B46DB004B449A465346301C5C681B68391C009301941A1C231CFDF775FF041C0D1C00980199221C2B1C00F0B5FB0B1C021C391C301CFDF767FF53469860D96080
:4065C0001C605D6008235B429C464AABE244261C2F1C9A45D8D14346012B00DC66E7039BCA464B441E685F685B46DB009846C2445346321C5C681B6800930194181C211CF9
:406600003B1CFDF741FF041C0D1C00980199221C2B1C00F081FB3B1C321CFDF735FF53469860D9601C605D6008235B429C46E244261C2F1CD145DBD144460020002108346D
:406640004C444EAD22686368083CFDF71DFFAC42F8D1059B002B00D02EE74C9A4D9B089C226063604B469A68DB6800920193A260E360021C0B1C2261636190E6012259E524
:40668000002415E5099BDB00039374AB069346E44B46201C291C9E0000F0B8FE10AB9851C846ECE5FFFFFF3FFFFFFF1FF0B54F464646C0B487B000920193464A4B0081465B
:4066C00088465B08934207DC4146484600F09EFE4146031E484664D04A46434648464146FEF7FAF94A464346041C0D1CFEF7F4F9394A3A4B061C0F1C201C291CFEF7ECF99C
:40670000374A384B00F008FB221C2B1CFEF7E4F9354A364BFDF7B8FE221C2B1CFEF7DCF9334A344B00F0F8FA221C2B1CFEF7D4F9314B324AFDF7A8FE0E9B02900391002B61
:4067400034D00098019900222D4BFEF7C5F9029A039B04900591301C391CFEF7BDF9021C0B1C0498059900F0D7FA221C2B1CFEF7B3F9009A019B00F0CFFA224A041C0D1CDC
:40678000214B301C391CFEF7A7F9021C0B1C201C291CFDF779FE021C0B1C4846414600F0BBFA07B00CBC90469946F0BD029A039B201C291CFEF790F9124A134B00F0ACFA9D
:4067C000321C3B1CFEF788F94A464346FDF75CFEE7E7C046FFFF3F3E7CD5CF5A3AD9E53DEB9C2B8AE6E55A3E7DFEB157E31DC73ED561C119A0012A3F1111813FA6F8101137
:406800000000E03F495555555555C53F49004B08191C7047F0B55F464D4644465646F0B4484B4D006D0DEF1883B0061C0C1C88468B468146132F27DC002F54DB424D414617
:406840003D4129400143021C231C002913D03F4A3F4B211CFDF718FE0022002300F02EF9002806D0002C4EDB5B46AB4398460023994643464A46101C191C03B03CBC904611
:406880009946A246AB46F0BD332F0CDD0B1C8021021CC9008F42EED1321C211CFDF7F4FD021C0B1CE7E701222A4B5242EB18DA40111C0192231C021C0142DCD0234A244B35
:4068C000211CFDF7E1FD0022002300F0F7F80028CFD0002C1CDB4B46019AD8469343994643464A46C7E7194A194BFDF7CDFD0022002300F0E3F80028BBD0002C15DB00232E
:4069000099469846B5E780235B033B419B44ABE7142F13D0104B5D1B0123AB409946B144B1459B415B429B44D5E7002364006408264399469DD0094B98469AE701239C46C9
:40694000E344C8E701FCFFFFFFFF0F009C7500883CE4377EEDFBFFFF330400000000F0BFF8B5314F161C3B1C0B40041C0D1C0A1C1B1520D14B005B0803431BD000222B4BF7
:40698000FEF7AAF82A4B041C0D1C0A1C9E4222DB0F403F153B1C2749363B9B198B4211DD221C2B1C2448254900F056F8224A234BFEF792F8F8BD22498B4222D01D499B1946
:4069C0008B42EDDC002B0BDD1E491B050A401343201C191CEEE71C4A1C4BFEF77DF8E9E7191C353113DA1A4B9E42D9DC221C2B1C1548164900F030F8134A144BFEF76CF88A
:406A0000D8E7291C221C2B1CFDF73EFDD2E70D4936330A401B051343201C191C00220D4BFEF75AF8C6E7C0460000F07F00005043B03CFFFFFE0700009C7500883CE4377E22
:406A4000FF070000FFFF0F8059F3F8C21F6EA50150C300000000903C30B54A00DB0F5208DB071343191C30BD8446101C62468C46191C634600E0C0461FB500F0E7F800289F
:406A800001D40021C8421FBD10B500F02BF84042013010BD10B500F0D9F8002801DB002010BD012010BDC04610B500F0CFF8002801DD002010BD012010BDC04610B500F01F
:406AC00055F8002801DC002010BD012010BDC04610B500F04BF8002801DA002010BD012010BDC046F0B55F464D4644465646F0B41F035C00DB0F99461B4B0E034D00C90FFD
:406B00008446360B6D0D8B4690463F0B640D9D420CD0154B9C4210D00123A54214D0181C3CBC90469946A246AB46F0BD311C01230143F4D10C4B9C42EED13A430123002A06
:406B4000EDD10123A542EAD1BE42E8D1C445E6D1CB4506D0002DE2D13043031C581E8341DDE70023DBE7C046FF070000F0B5574645464E46E0B40F034E00C90F8A46324959
:406B80001D035C0084463F0B760D90462D0B640DDB0F8E420FD08C4239D0002E10D13843414241418946002C27D12A4325D1002000290ED108E0391C01432ED1B44226D05A
:406BC000002C0BD09A450DD05346594201231943081C1CBC90469946A246F0BD2A43F3D09A45F1D1A642EFDC1ADA504641424841012341421943081CEBE74A46002AE1D05A
:406C000058425841012241421143081CE1E7291C114302D1002EC2D0D4E702204042D8E7AF42D1D809D00020AF42D2D2504641424841012340421843CBE7C445C4D80020AF
:406C4000C445F3D3C5E7C046FF070000F0B55F464D46444656468046F0B4061C0803000B84462C484C001F035D00C90F640D8B4691463F0B6D0DDB0F844212D0854225D0DC
:406C8000002C14D161460E4370424641002D35D0002E21D058425841012143420B43181C0EE06146022031430AD1A5420ED0002D12D13A4310D15B46594201231943081CCC
:406CC0003CBC90469946A246AB46F0BD391C02201143F5D1002CD5D09B45ECD1AC42EADC05DBBC45E7D80FD00020BC45E8D2584641424841414201200843E1E73A43C7D1DE
:406D00000020002EDCD1D6E7C845D4D80020C845EDD3D5E7FF070000F0B54D4644465F465646F0B40E1C111C3203520A470F1743C5001A035800DB0F9946520A4B0F83B008
:406D40001A43CB000193CF4B7400F60F640DB046400D984200D1E8E00123494659400B1C9E4200D1B1E0261A002E00DC1CE1002842D1131C01990B4300D0E6E06B0700D176
:406D80008EE00F232B40042B00D189E02A1DAA42AD418023012641466D427F191B043B400E40151C002B00D183E0B64B01349C4200D116E13A1CB44BED081A4050076405EE
:406DC00052020543120B640D002112030B0D1B056405120B1A436308AC4CF60714401C43640064083443281C211C03B03CBC90469946A246AB46F0BDA24B9C42BED080235B
:406E00001B041A43382E00DD03E11F2E00DD3FE12020831B9946131C49468B409C46019B6046F34003430198F2408840011C481E81410B43EB1A9D4280411D1CBA1A404228
:406E4000171A3B0200D4A8E07A02560A002E00D1CAE0301CFEF7F8F9031C083B1F2B00DDCBE02822291C121AD1409E400A1C9D4032439C4200DDC8E01C1B671C1F2F00DDF3
:406E8000EDE01F23291C1C1B131CA540A340F9406C1EA541FA4019430D43171C00246DE78023012642461B043B401640002B00D07BE7744BED0878070543FA089C423BD011
:406EC00012036405120B640D7EE7231A9A46002B00DCA5E0002844D06A48844200D14DE78020000402435346382B00DC1CE1019B1A43511E8A41D1B200224919A94280411B
:406F00000D1CD219404217183B0246D55D4B01349C4200D169E101205B4A6B083A4028401843D5070543570828E7131C01990B4300D111E74B4613E72B1C134351D080238A
:406F40001B031A431203120B3EE7013E002E00D080E0691A8D429B41BA1A5B42D71A0D1C6FE7101C019B184300D107E701235B429C46E2445346002B00D002E1019BD219EA
:406F80005919A9429B415B42D7180D1CBCE76346034300D128E1071C65466B0700D0F0E6012643461E4084E7002E00D081E0601C4005400D012800DC07E10199681A8446D8
:406FC0006545B641B81A7642861B300200D4A1E08C464D1BAC458941D21B4942561A984634E700220025EFE6281CFEF72DF92030031C083B1F2B00DC33E7021C283A9540A6
:407000002A1C00259C4200DC36E71F4FE41A1740B4E6019B1A43511E8A41D3B2002209E7002B00D001E1601C43055B0D012B00DCB0E0144B984200D11EE1019BD219591944
:40704000A9429B415B42D2184908D5070D435708041C93E60B4B9C4200D0D3E68EE6211C131C1F39CB40191C202F00D18EE03F231C1BA24015436A1E954100270D430024BE
:407080008BE7C046FF070000FFFF7FFFFFFF0F80331C101C203BD840202E79D040239B1B9A40131C019A1343591E8B4100220343C0E6002C53D0C74CA04200D1B0E0802417
:4070C00071428946240427434946382900DDCDE01F2900DD59E120243E1C611A8E408A46B04649462E1CCE405146B4468D4064464646494626436C1EA541CF4035430199F2
:40710000D71B8C464D1BAC4592415242BF1A041C984696E663466546334300D096E60026002700240025C4E61F2B61DC2020C31A9B46131C59468B4051469946019BCB40E7
:407140009C464B46604603439C465B46019999406346481E814119435346DA40CDE63C1C2C435DD0F1438946002955D10199D21B8C464D1BAC4589414942571A041C98466B
:407180005FE69448844200D0ADE6F7E5002271E7002387E73B1C2B43002C00D0DAE0002B00D113E1131C01990B4300D1E6E54919A9429B41D2195B42D7183B0200D421E1CD
:4071C000854B0D1C1F40041CD8E5381C2843002C40D1002800D083E0101C0199084303D0171C0D1C9846C9E500260027002560E65046131C2038C340181C5346202B00D176
:40720000C1E0402351465B1A9A40019911434A1E91410022014370E66E4CA04200D053E7171C019D041C9846A8E5002C28D13C1C2C4300D18AE0DB439A46002B00D082E0FC
